:1000000093C0ADC0ACC0ABC0AAC0A9C0A8C0A7C0B7
:10001000A6C0A5C0A4C0A3C0A2C0A1C0A0C09FC0CC
:100020009EC09DC09CC06E616E00696E66000040FF
:100030007A10F35A00A0724E18090010A5D4E800F7
:1000400000E87648170000E40B54020000CA9A3B0F
:10005000000000E1F5050000809698000000404295
:100060000F000000A0860100000010270000000023
:10007000E803000000006400000000000A00000027
:1000800000000100000000002C76D888DC674F08D3
:1000900023DFC1DFAE59E1B1B796E5E3E453C63AD9
:1000A000E651997696E8E6C28426EB898C9B62ED50
:1000B000407C6FFCEFBC9C9F40F2BAA56FA5F4900A
:1000C000055A2AF75C936B6CF9676DC11BFCE0E481
:1000D0000D47FEF520E6B500D0ED902E03009435D7
:1000E00077050080841E080000204E0A000000C82A
:1000F0000C333333330F986E12831141EF8D21147B
:10010000893BE65516CFFEE6DB18D1844B381BF74A
:100110007C1D901DA4BBE424203284725E228100E9
:10012000C9F124ECA1E53D2711241FBECFE5D4E0A1
:10013000DEBFCDBF10E0A0E6B0E0E2E7F9E102C02B
:1001400005900D92A837B107D9F720E0A8E7B0E0F5
:1001500001C01D92AC37B207E1F7A9D308CC50CF4C
:100160002FEF83ED90E3215080409040E1F700C0F5
:100170000000109278000895CF92DF92EF92FF92E4
:10018000CF93DF9300D000D01F92CDB7DEB7682F9A
:10019000792FFE01319685E0DF011D928A95E9F7FE
:1001A00010927800AB98A39A8FE39CE90197F1F73E
:1001B00000C00000AB9AA3982FE10AC095E09A9581
:1001C000F1F70000215021F484E0809378008FC083
:1001D0009B99F4CF80917800882359F088C0A5E0DE
:1001E000AA95F1F70000215029F484E0809378006B
:1001F0000EC023E39B9BF3CF0AC0B5E0BA95F1F79D
:100200000000215029F484E08093780070C023E33B
:100210009B99F3CF80917800882309F443C067C08D
:1002200085E08A95F1F70000215031F45093780071
:1002300045E034C0422F24E29B9BF2CF209178000E
:10024000211129C09DE59A95F1F700009B9B1EC0E6
:10025000E1E0F0E0EC0FFD1FE40FF11D2081D7017C
:10026000C601032E04C0880F991FAA1FBB1F0A9442
:10027000D2F7822B80830AC0A5E0AA95F1F700008F
:10028000215029F450937800242F06C023E39B9932
:10029000F3CF242F01C0242F315062F64F5F453039
:1002A00038F008C040E0C12CD12C7601C39454E052
:1002B00037E0C1CF80917800811119C099818A817E
:1002C000980F8B81980F8C81890F9D81891721F060
:1002D00083E0809378000BC0DE011196E62FF72FA4
:1002E000CE0105962D912193A817B907D9F78091D2
:1002F00078000F900F900F900F900F90DF91CF919B
:10030000FF90EF90DF90CF9008958F929F92AF92E1
:10031000BF92CF92DF92EF92FF920F931F93CF93F2
:10032000DF9300D000D0CDB7DEB78C017B011982FE
:100330001A821B821C82CE0101961EDF811169C0C8
:100340006C818B81882374F48F7770E0782B072E73
:10035000000C880B990B1BD520E030E040E251ECFB
:10036000ACD40CC070E0782B072E000C880B990BD6
:100370000ED520E030E040E251E49FD4F8016083E4
:10038000718382839383698170E0762F66278A81E7
:10039000682B072E000C880B990BF9D420E030E075
:1003A00040E251E48AD44B015C01F7016083718320
:1003B00082839383F801C080D180E280F38020E0C3
:1003C00030E040E252ECC701B60173D488234CF010
:1003D00020E030E040EA52E4C701B60188D51816A3
:1003E00024F482E08093780014C020E030E0A9017A
:1003F000C501B4015ED488234CF020E030E048EC25
:1004000052E4C501B40173D518161CF481E0809341
:100410007800809178000F900F900F900F90DF91EF
:10042000CF911F910F91FF90EF90DF90CF90BF90F1
:10043000AF909F908F9008956623B9F0FC016150B2
:1004400070E06F5F7F4F680F791F80E04CE821916B
:1004500098E0382F3227869530FD842726959150D5
:10046000C1F7E617F70799F7089580E008957F929E
:100470008F929F92AF92BF92CF92DF92EF92FF92B4
:100480000F931F93CF93DF937C016B015A01722E60
:100490004801012B19F40CEC38D10FC005E535D11A
:1004A000E40188E0880E911C0991272DA501B60171
:1004B000C7012BD1C815D905B9F7DF91CF911F918D
:1004C0000F91FF90EF90DF90CF90BF90AF909F90F3
:1004D0008F907F900895BF92CF92DF92EF92FF921C
:1004E0000F931F93CF93DF93EC017B016A01B22E30
:1004F000A4D0813061F02B2DA601B701CE01B7DF6A
:1005000004E42B2DA601B701CE01FFD080E0DF91DE
:10051000CF911F910F91FF90EF90DF90CF90BF9000
:1005200008957F928F929F92AF92BF92CF92DF9267
:10053000EF92FF920F931F93CF93DF936C015B01B8
:100540004A01722E7AD08130A9F1272DA401B5017C
:10055000C6018DDF0EEB272DA401B501C601D5D054
:10056000E7018701075F1F4F272DA401B501C601D1
:1005700023D18993C017D107B9F7F7019081818101
:10058000892B9281892B9381892B9481892B958149
:10059000892B9681892B9781892B49F068E0C701C7
:1005A0004BDFF7019085891304C080E003C083E02E
:1005B00001C082E0DF91CF911F910F91FF90EF90EA
:1005C000DF90CF90BF90AF909F908F907F900895D5
:1005D000CF92DF92EF92FF920F931F93CF93DF930F
:1005E000CDB7DEB729970FB6F894DEBF0FBECDBFEB
:1005F0006701FE0131967F0194DF882321F0F60127
:10060000118210820BC08A8190E0982F882729815F
:10061000820F911DF6019183808380E029960FB6A9
:10062000F894DEBF0FBECDBFDF91CF911F910F9128
:10063000FF90EF90DF90CF900895CF93DF93DC0190
:10064000FB013FB78C91822B8C938081822B80831E
:100650009C91822F809598239C93CFEAD4E0219798
:10066000F1F700C00000908189238083DAEBDA95EE
:10067000F1F700C0EA018881CFE8D1E02197F1F7D6
:1006800000C000009C91922B9C939081922B9083B0
:10069000EFEAF4E03197F1F700C000003FBF2823F4
:1006A00081E009F480E0DF91CF9108950F93FC0180
:1006B0009FB78081822B8083DB018C91822B8C936E
:1006C0008081322F309583238083002361F0B5E150
:1006D000BA95F1F700008081282B208385ED8A955B
:1006E000F1F700000BC0A5EDAA95F1F7000080819D
:1006F000282B2083B5E0BA95F1F700009FBF81E079
:10070000011101C080E00F9108957F928F929F9216
:10071000AF92BF92CF92DF92EF92FF920F931F930F
:10072000CF93DF934C015B016A01122FD02F7FB66C
:100730006894EE24E3F8F12CC1E00D2F0C23212F57
:10074000A601B501C401B2DFCC0F81E0E81AF108BF
:10075000A1F77FBEDF91CF911F910F91FF90EF9096
:10076000DF90CF90BF90AF909F908F907F90089533
:10077000DC01FB013FB78C91822B8C938081822B13
:1007800080838C91922F909589238C9385E08A9514
:10079000F1F700008081982390839DE09A95F1F70E
:1007A0000000FA018081F0EAFA95F1F73FBF2823B3
:1007B00081E009F480E008958F929F92AF92BF92FA
:1007C000CF92DF92EF92FF920F931F93CF93DF931D
:1007D0005C016B017A01922E8FB608E010E0C1E057
:1007E000D0E0292DA701B601C501C2DF8C9FC00151
:1007F0001124D82BCC0F0150110999F78FBE8D2FE2
:10080000DF91CF911F910F91FF90EF90DF90CF90EC
:10081000BF90AF909F908F90089584EA86BF06B6F0
:1008200007FEFDCF089584E986BF06B604FCFDCF20
:10083000089583B984E886BF06B607FEFDCF089504
:1008400020E4829FC0011124846886BF06B607FE9B
:10085000FDCF83B1089587B93E9A3D9886B18760F0
:1008600086B9379A369A3699FECF24B185B190E091
:10087000982F8827820F911D089590BD89B988E12E
:100880008AB9579A86E880BD08955D9BFECF8CB9E2
:100890000895CF93DF93EC018881882329F0219676
:1008A000F4DF89918111FCCFDF91CF910895CF932F
:1008B000DF93CDB7DEB7CA59D1400FB6F894DEBF8B
:1008C0000FBECDBF17BA83E981BF83E090E0D5DFCB
:1008D000379A3E9A87B1856087B942DC80E6BDD100
:1008E00043D158D16CE083E872D10F2EF0E6AF2EE1
:1008F000F0E0BF2EF02D6E012BE0C20ED11C00E007
:1009000010E022E043E350E064E370E085E390E030
:10091000E2DD8FEF99E628E1815090402040E1F739
:1009200000C00000CE0101967C0122E043E350E0CC
:1009300064E370E085E390E04BDE9FEF23ED80E31E
:10094000915020408040E1F700C00000BE01695F87
:100950007F4FCE010396D9DC9FEF23ED80E39150CA
:1009600020408040E1F700C0000080E074DF182FD5
:10097000092F9FEF23ED80E3915020408040E1F765
:1009800000C0000073D0F82EE92E73D0982E892E67
:1009900073D0762E672E582E492E48D088230CF41B
:1009A000ABD09FEF23ED80E3915020408040E1F7F2
:1009B00000C000004F925F926F927F928F929F9241
:1009C000EF92FF920F931F938E818F938D818F9360
:1009D0008C818F938B818F938A858F9389858F9359
:1009E00088858F938F818F938A818F9389818F934D
:1009F000BF92AF92DF92CF923DD7C6014ADF0FB6CA
:100A0000F894DEBF0FBECDBF7ACFCF93C82F05DFDE
:100A100080917B00880F81600CDF8C2F0ADF80E0E3
:100A20000FDFC82F00DF8C2FCF91089580E2EDDF1C
:100A30000895CF93DF93C82FF0DE80917B00880F5D
:100A4000F8DE8C2FF6DEE9DE80917B00880F816076
:100A5000F0DE81E0F5DEC82F80E0F2DED82FE3DEA5
:100A60008C2F90E09D2BDF91CF91089582E2E1DF02
:100A7000089584E2DEDF08958CE2DBDFBC0180E0D4
:100A800090E083D120E030E048EC52E416D10895A4
:100A9000CF93DF93D82FC62FC0DE80917B00880FC5
:100AA000C8DE8D2FC6DE8C2FC4DEBDDEDF91CF9178
:100AB0000895CF93C82F61E083E0EADF6C2F84E0D4
:100AC000E7DFCF91089567E187E0E2DF089561E015
:100AD00088E1DEDF8FE19EE40197F1F700C00000BE
:100AE000F2DF8FE19EE40197F1F700C00000089566
:100AF000682F8FE0CDDF089560E088E1C9DF0895B9
:100B0000CF93C82F87E1C4DF6C2F606A88E1C0DF14
:100B10008EE27BDFCF910895682F87E0F1DF0895A3
:100B2000682F8EE0EDDF0895CF93C82F682F8BE0FC
:100B3000E7DF6C2F609567706295607F8AE0E0DF89
:100B4000CF91089564E08CE0DBDF0895CF93C82F48
:100B5000682F81E1D5DF6C2F609567706295607FAB
:100B600080E1CEDFCF91089560E282E1C9DF089590
:100B700060E082E1C5DF0895CF93C82F682F8EE132
:100B8000BFDF6C2F609567706295607F8DE1B8DF85
:100B9000CF91089560E28FE1B3DF089560E08FE1C7
:100BA000AFDF089580937B00682F80E0A9DF8FE19D
:100BB0009EE40197F1F700C0000062E088E168DF81
:100BC0008FE19EE40197F1F700C000000895CF93F4
:100BD000C62F60937A0080937900833079F028F4EF
:100BE000813041F0823041F00FC0823849F08338C3
:100BF00049F00AC061E009C060E307C061E305C0D5
:100C000060EB03C061EB01C060E0C82B81E078DFDE
:100C10006C2F88E13DDF8FE19EE40197F1F700C082
:100C20000000CF9108951F93CF93DF93182FD62FF5
:100C3000C72FF3DD80917B00880FFBDD812FF9DD6D
:100C40008D2FF7DD8C2FF5DDEEDDDF91CF911F913C
:100C50000895BC0188E0E7DF0895CF93C82F809303
:100C60007B0035DF69E283E113DF69E884E110DFAF
:100C700062E085E10DDF60E086E10ADF85E019DFF3
:100C80008FEF90E0E6DF83E033DF61E082E038DF82
:100C900083E042DF80E048DF55DF80E041DF80E035
:100CA00055DF66DF80E068DF79DF8C2F7BDFCF9157
:100CB0000895A8D008F481E008950CD0DEC0D6D005
:100CC00040F0CDD030F021F45F3F19F0BFC051119A
:100CD00008C1C2C0E3D098F39923C9F35523B1F3F7
:100CE000951B550BBB27AA2762177307840738F09B
:100CF0009F5F5F4F220F331F441FAA1FA9F333D0FA
:100D00000E2E3AF0E0E830D091505040E695001CAD
:100D1000CAF729D0FE2F27D0660F771F881FBB1F69
:100D2000261737074807AB07B0E809F0BB0B802D43
:100D3000BF01FF2793585F4F2AF09E3F510568F08F
:100D400085C0CFC05F3FECF3983EDCF38695779586
:100D50006795B795F7959F5FC9F7880F911D969591
:100D6000879597F90895E1E0660F771F881FBB1FED
:100D7000621773078407BA0720F0621B730B840B9A
:100D8000BA0BEE1F88F7E0950895E89409C097FB29
:100D90003EF490958095709561957F4F8F4F9F4F52
:100DA0009923A9F0F92F96E9BB279395F695879596
:100DB00077956795B795F111F8CFFAF4BB0F11F459
:100DC00060FF1BC06F5F7F4F8F4F9F4F16C0882300
:100DD00011F096E911C0772321F09EE8872F762F36
:100DE00005C0662371F096E8862F70E060E02AF077
:100DF0009A95660F771F881FDAF7880F9695879563
:100E000097F90895990F0008550FAA0BE0E8FEEF37
:100E100016161706E807F907C0F012161306E407BE
:100E2000F50798F0621B730B840B950B39F40A26B7
:100E300061F0232B242B252B21F408950A2609F495
:100E4000A140A6958FEF811D811D089597F99F6799
:100E500080E870E060E008959FEF80EC0895002442
:100E60000A941616170618060906089500240A940F
:100E700012161306140605060895092E0394000C95
:100E800011F4882352F0BB0F40F4BF2B11F460FF24
:100E900004C06F5F7F4F8F4F9F4F089557FD90584D
:100EA000440F551F59F05F3F71F04795880F97FB2E
:100EB000991F61F09F3F79F08795089512161306E8
:100EC0001406551FF2CF4695F1DF08C01616170617
:100ED0001806991FF1CF869571056105089408954C
:100EE000E894BB2766277727CB0197F908958ADF17
:100EF00008F48FEF0895A0E1B0E0E0E8F7E059C30F
:100F00007C011B016A01FC0117821682838181FF2B
:100F10002AC39E012F5F3F4F3901F7019381F101F1
:100F200093FD859193FF81911F01882309F417C3D5
:100F3000853239F493FD859193FF81911F018532AC
:100F400031F4B70190E05AD456016501E6CF10E0C4
:100F5000512C912CFFE1F915D8F08B3279F038F44F
:100F6000803279F08332A1F4F92DF0612EC08D32F8
:100F700061F0803369F4292D21602DC0392D326054
:100F8000932E892D8460982E2AC0E92DE86015C023
:100F900097FC2DC020ED280F2A3088F496FE06C05D
:100FA0003AE0139F200D1124122F19C08AE0589E99
:100FB000200D1124522EE92DE0629E2E10C08E329B
:100FC00031F496FCCCC2F92DF0649F2E08C08C360B
:100FD00021F4292D2068922E02C0883641F4F101B7
:100FE00093FD859193FF81911F018111B3CF9BEBFD
:100FF000980F933020F4992D9061805E07C09BE993
:10100000980F933008F059C1992D9F7E96FF16E0F6
:101010009F73992E853619F49064992E08C08636F0
:1010200021F4392F3068932E02C01111115097FE10
:1010300007C01C3350F444244394410E27E00BC0F6
:10104000183038F027E017E005C027E09CE3492E70
:1010500002C0212F412C560184E0A80EB11CF601DC
:101060006081718182819381042DA301D9D26C01A9
:10107000F981FC87F0FF02C0F3FF06C091FC06C0B7
:1010800092FE06C000E205C00DE203C00BE201C003
:1010900000E08C858C7019F0011143C280C297FE6C
:1010A00010C04C0CFC85F4FF04C08A81813309F424
:1010B0004A94141474F528E0241578F588E0482E35
:1010C0002CC096FC2AC0812F90E08C159D059CF0C9
:1010D0003CEFC3163FEFD30674F0892D8068982E3D
:1010E0000AC0E2E0F0E0EC0FFD1FE10FF11D80818E
:1010F000803319F411501111F4CF97FE0EC044241F
:101100004394410E812F90E0C816D9062CF41C1987
:1011100004C04424439401C010E097FE06C01C1490
:101120001D0434F4C601019605C085E090E002C0BC
:1011300081E090E001110196112331F0212F30E080
:101140002F5F3F4F820F931F252D30E082179307AB
:1011500014F4581A01C0512C892D897041F455207E
:1011600031F0B70180E290E049D35A94F8CF0023E0
:1011700021F0B701802F90E041D393FC08C05520A7
:1011800031F0B70180E390E039D35A94F8CF97FE5D
:101190004AC04601D7FE02C0812C912CC601881995
:1011A0009909F301E80FF91FFE87ED8796012419CD
:1011B0003109388B2F87012F10E011950195110906
:1011C0003FEF8316930621F4B7018EE290E016D329
:1011D000C814D9044CF08F8598898815990524F492
:1011E000ED85FE85818101C080E3F1E08F1A9108D1
:1011F0002D853E852F5F3F4F3E872D8780169106B8
:1012000024F0B70190E0FAD2DBCFC814D90441F43E
:101210009A81963320F4953319F43C8534FF81E3A9
:10122000B70190E048C08A81813319F09C859F7E88
:101230009C87B70190E0E2D2111105C094FC16C062
:1012400085E690E015C0B7018EE290E0D7D21E5F30
:1012500082E001E0080FF301E80FF11D8081B70182
:1012600090E0CCD2802F0113F4CFE8CF85E490E05A
:10127000B701C4D2D7FC06C0C114D10441F4EC8537
:10128000E4FF05C0D194C194D1088DE201C08BE286
:10129000B70190E0B3D280E32AE0C216D1042CF06B
:1012A0008F5FFAE0CF1AD108F7CFB70190E0A6D24E
:1012B000B701C601C096A2D249C1833631F0833747
:1012C00079F0833509F052C01FC0560132E0A30EF9
:1012D000B11CF6018081898301E010E0630111C037
:1012E0005601F2E0AF0EB11CF601C080D18096FE2F
:1012F00003C0612F70E002C06FEF7FEFC60173D2B1
:101300008C01F92DFF7713C0560122E0A20EB11C0B
:10131000F601C080D18096FE03C0612F70E002C04C
:101320006FEF7FEFC60154D28C01F92DF0689F2E2C
:10133000F3FD18C0852D90E00817190798F4B70140
:1013400080E290E05BD25A94F5CFF60197FC85914C
:1013500097FE81916F01B70190E050D251105A94DD
:10136000015011090115110581F7F0C0843611F003
:10137000893659F5560197FE09C024E0A20EB11C2A
:10138000F60160817181828193810AC0F2E0AF0E23
:10139000B11CF60160817181072E000C880B990B3E
:1013A000F92DFF769F2E97FF09C090958095709537
:1013B00061957F4F8F4F9F4FF0689F2E2AE030E05E
:1013C000A30177D2C82EC6183EC0092D853721F457
:1013D0000F7E2AE030E01DC0097F8F3691F018F4AF
:1013E000883559F0BCC0803719F0883711F0B7C084
:1013F000006104FF09C0046007C094FE08C00660D5
:1014000006C028E030E005C020E130E002C020E165
:1014100032E0560107FF09C084E0A80EB11CF601B6
:10142000608171818281938108C0F2E0AF0EB11CAE
:10143000F6016081718180E090E0A3013AD2C82E6C
:10144000C6180F77902E96FE0BC0092D0E7FC11681
:1014500050F494FE0AC092FC08C0092D0E7E05C00F
:10146000DC2C092D03C0DC2C01C0D12E04FF0DC0E3
:10147000FE01EC0DF11D8081803311F4097E09C05D
:1014800002FF06C0D394D39404C0802F867809F05D
:10149000D39403FD10C000FF06C01C2DD51478F4B2
:1014A000150D1D190CC0D51450F4B70180E290E061
:1014B000A5D1D394F8CFD51410F45D1801C0512CE8
:1014C00004FF0FC0B70180E390E098D102FF16C07F
:1014D00001FD03C088E790E002C088E590E0B70115
:1014E0000CC0802F867851F001FF02C08BE201C052
:1014F00080E207FD8DE2B70190E080D1C11630F4A3
:10150000B70180E390E07AD11150F8CFCA94F3018B
:10151000EC0DF11D8081B70190E070D1C110F6CFC4
:1015200015C0F4E0F51550F584E0581A93FE1EC07E
:10153000011125C02C8523FF27C006E210E0392DBC
:101540003071932EF8018491811121C0552009F446
:10155000FCCCB70180E290E051D15A94F7CFF7016B
:101560008681978123C08FEF9FEF20C0B70180E273
:1015700090E044D15A945110F9CFDACF512CB701F1
:10158000802F90E03BD1D6CF0AE210E0D8CF911067
:101590008052B70190E032D10F5F1F4FD3CF23E0CD
:1015A000251510F483E0C1CF512CC4CF6096E2E141
:1015B0001CC02F923F924F925F926F927F928F92B8
:1015C0009F92AF92BF92CF92DF92EF92FF920F93D2
:1015D0001F93CF93DF93CDB7DEB7CA1BDB0B0FB6DC
:1015E000F894DEBF0FBECDBF09942A883988488899
:1015F0005F846E847D848C849B84AA84B984C8842F
:10160000DF80EE80FD800C811B81AA81B981CE0F25
:10161000D11D0FB6F894DEBF0FBECDBFED0108950A
:10162000283008F027E03327DA01990F311D87FDB4
:10163000916000966105710539F432602E5F3D932B
:1016400030E32A95E1F708959F3F30F08038710527
:10165000610509F03C5F3C5F3D93913008F0806884
:10166000911DDF93CF931F930F93FF92EF92192F4A
:10167000987F9695E92F96959695E90FFF27E8575D
:10168000FF4F99273327EE24FF24A701E701059098
:101690000894079428F4360FE71EF81E491F511DC1
:1016A000660F771F881F991F0694A1F7059007946E
:1016B00028F4E70EF81E491F561FC11D770F881F1B
:1016C000991F661F0694A1F70590079428F4F80E59
:1016D000491F561FC71FD11D880F991F661F771FEF
:1016E0000694A1F70590079420F4490F561FC71FD1
:1016F000D81F990F661F771F881F0694A9F784913A
:101700001095177041F0D695C79557954795F79462
:10171000E7941A95C1F7EEE2F0E068941590159100
:1017200035916591959105907FE27395E118F10AE5
:10173000430B560BC90BD009C0F7E10CF11E431F38
:10174000561FC91FD01D7EF4703311F48A95E6CF61
:10175000E894015030F0080F0AF40027021708F44B
:10176000202F2395022F7A3328F079E37D932A9551
:10177000E9F710C07D932A9589F6069497956795A9
:10178000379517951794E118F10A430B560BC90BBF
:10179000D00998F023957E9173957A3308F070E321
:1017A0007C932013B8F77E9170617D9330F0839520
:1017B00071E37D9370E32A95E1F71124EF90FF9098
:1017C0000F911F91CF91DF91992787FD90950895F3
:1017D000FC010590615070400110D8F780959095FC
:1017E0008E0F9F1F0895FC01615070400190011001
:1017F000D8F7809590958E0F9F1F08950F931F9394
:10180000CF93DF93FB01238121FD03C08FEF9FEF77
:101810002CC022FF16C04681578124813581421792
:10182000530744F4A081B1819D012F5F3F4F318365
:1018300020838C93268137812F5F3F4F3783268308
:1018400014C08B01EC01FB010084F185E02D0995AA
:10185000892BE1F6D80116968D919C9117970196E8
:1018600017969C938E931697CE01DF91CF911F917F
:101870000F910895AEE0B0E0EFE3FCE0A8CE0D8953
:101880001E8986E08C831A8309838FEF9FE79E83EE
:101890008D83AE01475E5F4F6F89788DCE010196D3
:1018A0002ADBEF81F885E00FF11F10822E96E4E02D
:1018B000AACEFA01AA27283051F1203181F1E8940B
:1018C0006F936E7F6E5F7F4F8F4F9F4FAF4FB1E033
:1018D0003ED0B4E03CD0670F781F891F9A1FA11D2E
:1018E000680F791F8A1F911DA11D6A0F711D811D2F
:1018F000911DA11D20D009F468943F912AE0269FF4
:1019000011243019305D3193DEF6CF010895462F52
:101910004770405D4193B3E00FD0C9F7F6CF462F33
:101920004F70405D4A3318F0495D31FD405241939C
:1019300002D0A9F7EACFB4E0A69597958795779559
:101940006795BA95C9F700976105710508959B01E0
:10195000AC010A2E06945795479537952795BA9569
:10196000C9F7620F731F841F951FA01D0895F89477
:02197000FFCFA7
:1019720025642C25662C25662C25642C25642C25B3
:08198200642C25660D0A00002B
:00000001FF
